:100000000C9463000C948B000C948B000C948B006C
:100010000C948B000C948B000C948B000C94330488
:100020000C948B000C948B000C948B000C948B0024
:100030000C948B000C948B000C948B000C948B0014
:100040000C94E9030C948B000C94DB040C94B50421
:100050000C948B000C948B000C948B000C948B00F4
:100060000C948B000C948B000200000000240027ED
:10007000002A0000000000250028002B00000000DE
:1000800000230026002900040404040404040402DC
:100090000202020202030303030303010204081025
:1000A00020408001020408102001020408102000F2
:1000B0000000080002010000030407000000000027
:1000C00000000000EE0511241FBECFEFD8E0DEBF18
:1000D000CDBF11E0A0E0B1E0ECEFFCE002C0059084
:1000E0000D92A631B107D9F721E0A6E1B1E001C038
:1000F0001D92AF3CB207E1F710E0C3E6D0E004C0C8
:100100002197FE010E946706C236D107C9F70E94F7
:100110000D050C947C060C940000833081F028F4CB
:10012000813099F08230A9F008958730A9F08830A5
:10013000C9F08430B1F4809180008F7D03C080913C
:1001400080008F7780938000089584B58F7784BD79
:10015000089584B58F7DFBCF8091B0008F77809319
:10016000B00008958091B0008F7DF9CFCF93DF93D9
:10017000282F30E0F901E155FF4F8491F901E55650
:10018000FF4FD491F901E957FF4FC491CC23A1F05F
:1001900081110E948D00EC2FF0E0EE0FFF1FE3585D
:1001A000FF4FA591B491EC91ED2381E090E009F42B
:1001B00080E0DF91CF91089580E090E0FACF1F9327
:1001C000CF93DF93282F30E0F901E155FF4F849161
:1001D000F901E556FF4FD491F901E957FF4FC4915A
:1001E000CC23A9F0162F81110E948D00EC2FF0E096
:1001F000EE0FFF1FED58FF4FA591B4918FB7F89404
:10020000EC91111108C0D095DE23DC938FBFDF91F4
:10021000CF911F910895DE2BF8CFCF93DF9390E01D
:10022000FC01E556FF4F249189579F4FFC018491B3
:100230008823D1F090E0880F991FFC01E759FF4F08
:10024000A591B491FC01ED58FF4FC591D491611176
:100250000EC09FB7F8948C91E22FE0958E238C937B
:100260002881E223E8839FBFDF91CF9108958FB764
:10027000F894EC91E22BEC938FBFF6CF3FB7F89454
:100280008091CB019091CC01A091CD01B091CE0194
:1002900026B5A89B05C02F3F19F00196A11DB11DE1
:1002A0003FBFBA2FA92F982F8827BC01CD01620F1D
:1002B000711D811D911D42E0660F771F881F991FD8
:1002C0004A95D1F708958F929F92AF92BF92CF92A5
:1002D000DF92EF92FF920E943E014B015C0184E6A7
:1002E000C82ED12CE12CF12C0E943E01681979090D
:1002F0008A099B09683E734081059105A8F321E0B6
:10030000C21AD108E108F10888EE880E83E0981E31
:10031000A11CB11CC114D104E104F10429F7FF9020
:10032000EF90DF90CF90BF90AF909F908F90089507
:100330004F925F926F927F928F929F92AF92BF92F5
:10034000CF92DF92EF92FF920F931F93CF938B0187
:1003500069017A0190910001891799F09F3F09F492
:1003600052C0CF911F910F91FF90EF90DF90CF90EF
:10037000BF90AF909F908F907F906F905F904F90C5
:100380000895E8E6F0E0C491C7FDEBCF61E00E947C
:100390000D012801712C612CCC23F1F0980150E063
:1003A00040E0C23009F0A8C028013A0160E970EDD0
:1003B00083E090E00E943D0649015A0181E0881ADD
:1003C0009108A108B10893E08FEF88169104A10469
:1003D000B10409F00CF4E9C068E478EE81E090E043
:1003E000A30192010E943D0649015A0181E0881A49
:1003F0009108A108B10894E0C111D7C085B5887FE4
:10040000836085BD8EC080930001E8E6F0E0C49172
:10041000CF3F09F4A6CFC13039F148F0C23009F41A
:1004200045C0C7FD9ECF61E00E940D01B7CF14BC4F
:1004300015BC94B5926094BD95B5916095BD282F7B
:1004400030E0F901E957FF4FE491F0E0EE0FFF1FB4
:10045000ED58FF4F45915491F901E556FF4FE49156
:10046000E0931701C0E092CF1092800010928100BB
:1004700090918100986090938100909181009160AB
:1004800090938100282F30E0F901E957FF4FE49164
:10049000F0E0EE0FFF1FED58FF4F45915491F90129
:1004A000E556FF4FE491E093160170CF1092B00033
:1004B0001092B1009091B00092609093B000909132
:1004C000B10091609093B100282F30E0F901E95715
:1004D000FF4FE491F0E0EE0FFF1FED58FF4F459105
:1004E00054915093210140932001F901E556FF4FAB
:1004F000E491E09322014ACF60E072E18AE790E064
:100500000E943D0649015A0181E0881A9108A1081C
:10051000B108C13031F480918100887F816080937F
:100520008100D801AA0FBB1FA70196010E945C069B
:1005300028EE33E040E050E00E941B06C13099F005
:10054000C23019F1C1110DCF87BC20931C0130932B
:100550001D0140931E0150931F0180916E00826027
:1005600080936E00FECE9092890080928800209346
:1005700018013093190140931A0150931B01809187
:100580006F00826080936F00ECCE8092B300209366
:10059000230130932401409325015093260180913B
:1005A0007000826080937000DCCE8091B100887F03
:1005B000892B8093B100B5CFAF92BF92CF92DF92DB
:1005C000EF92FF920F931F93CF93DF936C017B0108
:1005D0008B01040F151FEB015E01AE18BF08C01799
:1005E000D10759F06991D601ED91FC910190F0810C
:1005F000E02DC6010995892B79F7C501DF91CF91CF
:100600001F910F91FF90EF90DF90CF90BF90AF9030
:100610000895FC01538D448D252F30E0842F90E008
:10062000821B930B541710F0CF96089501970895ED
:10063000FC01918D828D981761F0A28DAE0FBF2FB6
:10064000B11D5D968C91928D9F5F9F73928F90E00C
:1006500008958FEF9FEF0895FC01918D828D98177B
:1006600031F0828DE80FF11D858D90E008958FEFB8
:100670009FEF0895FC01918D228D892F90E0805C81
:100680009F4F821B91098F739927089587E291E00C
:100690000E943A0321E0892B09F420E0822F08957B
:1006A00080E090E0892B29F00E94460381110C9490
:1006B00000000895FC01A48DA80FB92FB11DA35A05
:1006C000BF4F2C91848D90E001968F739927848F72
:1006D000A689B7892C93A089B1898C918370806495
:1006E0008C93938D848D981306C00288F389E02D36
:1006F00080818F7D80830895EF92FF920F931F93E7
:10070000CF93DF93EC0181E0888F9B8D8C8D9813C4
:100710001AC0E889F989808185FF15C09FB7F894D0
:10072000EE89FF896083E889F9898081837080641C
:1007300080839FBF81E090E0DF91CF911F910F9167
:10074000FF90EF900895F62E0B8D10E00F5F1F4F76
:100750000F731127E02E8C8D8E110CC00FB607FC85
:10076000FACFE889F989808185FFF5CFCE010E9413
:100770005A03F1CFEB8DEC0FFD2FF11DE35AFF4F24
:10078000F0829FB7F8940B8FEA89FB8980818062A1
:10079000CFCFCF93DF93EC01888D8823B9F0AA895E
:1007A000BB89E889F9898C9185FD03C0808186FD2C
:1007B0000DC00FB607FCF7CF8C9185FFF2CF80817B
:1007C00085FFEDCFCE010E945A03E9CFDF91CF9193
:1007D00008951F920F920FB60F9211242F933F93FB
:1007E0008F939F93AF93BF938091C7019091C8015E
:1007F000A091C901B091CA013091C60123E0230F35
:100800002D3758F50196A11DB11D2093C601809387
:10081000C7019093C801A093C901B093CA01809108
:10082000CB019091CC01A091CD01B091CE01019668
:10083000A11DB11D8093CB019093CC01A093CD015C
:10084000B093CE01BF91AF919F918F913F912F9126
:100850000F900FBE0F901F90189526E8230F029659
:10086000A11DB11DD2CF1F920F920FB60F9211246E
:100870002F933F934F935F936F937F938F939F93A8
:10088000AF93BF93EF93FF93809123019091240145
:10089000A0912501B0912601892B8A2B8B2BD1F1B8
:1008A00090912201E0912001F0912101808189271E
:1008B00080838091230190912401A0912501B09122
:1008C0002601181619061A061B069CF480912301AE
:1008D00090912401A0912501B09126010197A109D1
:1008E000B1098093230190932401A0932501B09333
:1008F0002601FF91EF91BF91AF919F918F917F91D1
:100900006F915F914F913F912F910F900FBE0F907C
:100910001F90189580910001E8E6F0E0E4919FEFC8
:1009200090930001E13051F030F0E23069F060E086
:100930000E94DF00DECF10926E00F9CF90916F0021
:100940009D7F90936F00F3CF909170009D7F909367
:10095000700091E09093B0009091B100987F946006
:100960009093B1001092B300E2CF1F920F920FB696
:100970000F9211242F933F934F935F936F937F9325
:100980008F939F93AF93BF93EF93FF9387E291E091
:100990000E945A03FF91EF91BF91AF919F918F9168
:1009A0007F916F915F914F913F912F910F900FBE6B
:1009B0000F901F9018951F920F920FB60F9211244F
:1009C0002F938F939F93EF93FF93E0913701F091D3
:1009D00038018081E0913D01F0913E0182FD1BC014
:1009E0009081809140018F5F8F7320914101821728
:1009F00041F0E0914001F0E0E95DFE4F958F80937A
:100A00004001FF91EF919F918F912F910F900FBE19
:100A10000F901F9018958081F4CF789484B58260F0
:100A200084BD84B5816084BD85B5826085BD85B592
:100A3000816085BD80916E00816080936E00109210
:100A4000810080918100826080938100809181008B
:100A5000816080938100809180008160809380001C
:100A60008091B10084608093B1008091B00081607A
:100A70008093B00080917A00846080937A008091A6
:100A80007A00826080937A0080917A0081608093FE
:100A90007A0080917A00806880937A001092C10079
:100AA00061E08DE00E940D0160E08CE00E940D018C
:100AB00061E08BE00E940D0160E08AE00E940D0180
:100AC000E0913701F091380182E08083E0913301B9
:100AD000F09134011082E0913501F09136018FECF4
:100AE000808310923F01E0913B01F0913C0186E050
:100AF0008083E0913901F0913A01808180618083A7
:100B0000E0913901F0913A01808188608083E09121
:100B10003901F0913A01808180688083E091390148
:100B2000F0913A0180818F7D808300E010E0EE2417
:100B3000E394F12C8FB7F8944091C7015091C8010C
:100B40006091C9017091CA018FBF8CE00E94B6000C
:100B5000EC0190930201809301018AE00E94B600AB
:100B6000CD2BC9F58091C4019091C501892B39F530
:100B700061E08DE00E94DF0024E630E040E050E0DC
:100B800060E773E089E00E9498010E94630124E617
:100B900030E040E050E06CE474E089E00E949801AD
:100BA0000E94630128EC30E040E050E068E275E02C
:100BB00089E00E949801F092C501E092C4010115FC
:100BC000110509F4B7CF0E944603882309F4B2CF78
:100BD0000E940000AFCF892B29F2F1CFE7E2F1E0CC
:100BE0001382128288EE93E0A0E0B0E084839583C4
:100BF000A683B78387E091E09183808385EC90E0C2
:100C00009587848784EC90E09787868780EC90E0D6
:100C1000918B808B81EC90E0938B828B82EC90E0C7
:100C2000958B848B86EC90E0978B868B118E128E41
:100C3000138E148E0895A1E21A2EAA1BBB1BFD0170
:100C40000DC0AA1FBB1FEE1FFF1FA217B307E407AB
:100C5000F50720F0A21BB30BE40BF50B661F771F03
:100C6000881F991F1A9469F76095709580959095E3
:100C70009B01AC01BD01CF010895052E97FB1EF429
:100C800000940E94540657FD07D00E941B0607FCE3
:100C900003D04EF40C945406509540953095219510
:100CA0003F4F4F4F5F4F0895909580957095619598
:100CB0007F4F8F4F9F4F08950E946D06A59F900D07
:100CC000B49F900DA49F800D911D11240895EE0FE7
:100CD000FF1F0590F491E02D0994A29FB001B39FEE
:100CE000C001A39F700D811D1124911DB29F700D35
:0C0CF000811D1124911D0895F894FFCF80
:100CFC00FF0100000000007C03DC020903C9033A79
:060D0C000318032C030094
:00000001FF
